{
  "_format": "hh-sol-artifact-1",
  "contractName": "StakeApp",
  "sourceName": "contracts/StakeApp.sol",
  "abi": [
    {
      "inputs": [
        {
          "internalType": "address",
          "name": "_rewardToken",
          "type": "address"
        }
      ],
      "stateMutability": "nonpayable",
      "type": "constructor"
    },
    {
      "anonymous": false,
      "inputs": [
        {
          "indexed": false,
          "internalType": "address",
          "name": "tokenAddr",
          "type": "address"
        },
        {
          "indexed": false,
          "internalType": "uint8",
          "name": "position",
          "type": "uint8"
        },
        {
          "indexed": false,
          "internalType": "uint256",
          "name": "blocktime",
          "type": "uint256"
        }
      ],
      "name": "newStakedTokenAdded",
      "type": "event"
    },
    {
      "anonymous": false,
      "inputs": [
        {
          "indexed": false,
          "internalType": "address",
          "name": "tokenAddr",
          "type": "address"
        },
        {
          "indexed": false,
          "internalType": "address",
          "name": "user",
          "type": "address"
        },
        {
          "indexed": false,
          "internalType": "uint256",
          "name": "stakedAmount",
          "type": "uint256"
        }
      ],
      "name": "tokenStaked",
      "type": "event"
    },
    {
      "anonymous": false,
      "inputs": [
        {
          "indexed": false,
          "internalType": "address",
          "name": "tokenAddr",
          "type": "address"
        },
        {
          "indexed": false,
          "internalType": "address",
          "name": "user",
          "type": "address"
        },
        {
          "indexed": false,
          "internalType": "uint256",
          "name": "unstakedAmount",
          "type": "uint256"
        }
      ],
      "name": "tokenUnstaked",
      "type": "event"
    },
    {
      "inputs": [],
      "name": "RewardToken",
      "outputs": [
        {
          "internalType": "contract IERC20",
          "name": "",
          "type": "address"
        }
      ],
      "stateMutability": "view",
      "type": "function"
    },
    {
      "inputs": [
        {
          "internalType": "address",
          "name": "_stakeAddress",
          "type": "address"
        }
      ],
      "name": "addStakeToken",
      "outputs": [
        {
          "internalType": "bool",
          "name": "",
          "type": "bool"
        }
      ],
      "stateMutability": "nonpayable",
      "type": "function"
    },
    {
      "inputs": [
        {
          "internalType": "address",
          "name": "tokenAddr",
          "type": "address"
        }
      ],
      "name": "getUserBalance",
      "outputs": [
        {
          "internalType": "uint256",
          "name": "",
          "type": "uint256"
        }
      ],
      "stateMutability": "view",
      "type": "function"
    },
    {
      "inputs": [
        {
          "internalType": "address",
          "name": "tokenAddr",
          "type": "address"
        }
      ],
      "name": "getUserRewards",
      "outputs": [
        {
          "internalType": "uint256",
          "name": "",
          "type": "uint256"
        }
      ],
      "stateMutability": "nonpayable",
      "type": "function"
    },
    {
      "inputs": [],
      "name": "owner",
      "outputs": [
        {
          "internalType": "address",
          "name": "",
          "type": "address"
        }
      ],
      "stateMutability": "view",
      "type": "function"
    },
    {
      "inputs": [
        {
          "internalType": "address",
          "name": "tokenAddr",
          "type": "address"
        },
        {
          "internalType": "uint256",
          "name": "amount",
          "type": "uint256"
        }
      ],
      "name": "stake",
      "outputs": [
        {
          "internalType": "bool",
          "name": "",
          "type": "bool"
        }
      ],
      "stateMutability": "nonpayable",
      "type": "function"
    },
    {
      "inputs": [
        {
          "internalType": "address",
          "name": "",
          "type": "address"
        }
      ],
      "name": "stakingTokensTracker",
      "outputs": [
        {
          "internalType": "uint256",
          "name": "",
          "type": "uint256"
        }
      ],
      "stateMutability": "view",
      "type": "function"
    },
    {
      "inputs": [
        {
          "internalType": "address",
          "name": "tokenAddr",
          "type": "address"
        },
        {
          "internalType": "uint256",
          "name": "amount",
          "type": "uint256"
        }
      ],
      "name": "unstake",
      "outputs": [
        {
          "internalType": "bool",
          "name": "",
          "type": "bool"
        }
      ],
      "stateMutability": "nonpayable",
      "type": "function"
    },
    {
      "inputs": [
        {
          "internalType": "address",
          "name": "",
          "type": "address"
        },
        {
          "internalType": "address",
          "name": "",
          "type": "address"
        }
      ],
      "name": "userRewardAmount",
      "outputs": [
        {
          "internalType": "uint256",
          "name": "",
          "type": "uint256"
        }
      ],
      "stateMutability": "view",
      "type": "function"
    },
    {
      "inputs": [
        {
          "internalType": "address",
          "name": "",
          "type": "address"
        },
        {
          "internalType": "address",
          "name": "",
          "type": "address"
        }
      ],
      "name": "userStakedAmount",
      "outputs": [
        {
          "internalType": "uint256",
          "name": "",
          "type": "uint256"
        }
      ],
      "stateMutability": "view",
      "type": "function"
    }
  ],
  "bytecode": "0x60a060405234801561001057600080fd5b50604051610dc7380380610dc783398101604081905261002f91610075565b6000805461012c600155600160a81b600161ff0160a01b03199091163360ff60a81b1916171760ff60a01b1916600160a11b1790556001600160a01b03166080526100a5565b60006020828403121561008757600080fd5b81516001600160a01b038116811461009e57600080fd5b9392505050565b608051610d006100c7600039600081816101c10152610a070152610d006000f3fe608060405234801561001057600080fd5b506004361061009e5760003560e01c80638da5cb5b116100665780638da5cb5b1461016b578063adc9772e14610196578063c2a672e0146101a9578063f1e9f1e5146101bc578063f646181a146101e357600080fd5b8063078b0fb7146100a35780631fecb71a146100c957806347734892146100ec5780637c4ddfe5146101205780638302fe1114610140575b600080fd5b6100b66100b1366004610ae2565b61020e565b6040519081526020015b60405180910390f35b6100dc6100d7366004610ae2565b6102e0565b60405190151581526020016100c0565b6100b66100fa366004610ae2565b6001600160a01b0316600090815260046020908152604080832033845290915290205490565b6100b661012e366004610ae2565b60026020526000908152604090205481565b6100b661014e366004610b04565b600460209081526000928352604080842090915290825290205481565b60005461017e906001600160a01b031681565b6040516001600160a01b0390911681526020016100c0565b6100dc6101a4366004610b37565b6104c7565b6100dc6101b7366004610b37565b61072d565b61017e7f000000000000000000000000000000000000000000000000000000000000000081565b6100b66101f1366004610b04565b600560209081526000928352604080842090915290825290205481565b6001546001600160a01b0382166000908152600360209081526040808320338452909152812054909182916102439190610b77565b61024d9042610b77565b60005490915061026990606490600160a01b900460ff16610ba6565b60ff1661027962278d0083610bc8565b6001600160a01b03851660009081526004602090815260408083203384529091529020546102a79190610bdc565b6102b19190610bdc565b6001600160a01b0393909316600090815260056020908152604080832033845290915290208390555090919050565b600080546001600160a01b031633146103385760405162461bcd60e51b81526020600482015260156024820152742cb7ba9030b932903737ba103a34329037bbb732b960591b60448201526064015b60405180910390fd5b6001600160a01b03821661039a5760405162461bcd60e51b815260206004820152602360248201527f5a65726f20416464726573732063616e6e6f74206265207374616b656420746f60448201526235b2b760e91b606482015260840161032f565b6001600160a01b038216600090815260026020526040902054156104005760405162461bcd60e51b815260206004820181905260248201527f5468697320746f6b656e20697320616c7265616479206265656e5374616b6564604482015260640161032f565b600080546001600160a01b038416825260026020526040822060ff600160a81b9283900481169091558254919091041690601561043c83610bf3565b91906101000a81548160ff021916908360ff160217905550507f7569f5f1f869b477d053fec211248c95f46465a64ba515e4e00ae4e39b610831826001600060159054906101000a900460ff166104939190610c12565b604080516001600160a01b03909316835260ff9091166020830152429082015260600160405180910390a15060015b919050565b6001600160a01b03821660009081526002602052604081205483906104fe5760405162461bcd60e51b815260040161032f90610c2b565b6040516370a0823160e01b815233600482015283906001600160a01b038616906370a0823190602401602060405180830381865afa158015610544573d6000803e3d6000fd5b505050506040513d601f19601f820116820180604052508101906105689190610c7c565b10156105b65760405162461bcd60e51b815260206004820152601a60248201527f496e73756666696369656e7420546f6b656e2042616c616e6365000000000000604482015260640161032f565b6040516323b872dd60e01b8152336004820152306024820152604481018490526001600160a01b038516906323b872dd906064016020604051808303816000875af1158015610609573d6000803e3d6000fd5b505050506040513d601f19601f8201168201806040525081019061062d9190610c95565b6106795760405162461bcd60e51b815260206004820152601860248201527f5446204661696c6564202d207374616b65206d6574686f640000000000000000604482015260640161032f565b6001600160a01b0384166000908152600460209081526040808320338452909152812080548592906106ac908490610cb7565b90915550506001546106be9042610cb7565b6001600160a01b038516600081815260036020908152604080832033808552908352928190209490945583519283528201529081018490527f3d2932fd789c6e5cec057909a146c1d7d3b64f268f6c9c81bb12f0c4601b010d9060600160405180910390a15060019392505050565b6001600160a01b03821660009081526002602052604081205483906107645760405162461bcd60e51b815260040161032f90610c2b565b6001600160a01b038416600090815260036020908152604080832033845290915290205442116107f15760405162461bcd60e51b815260206004820152603260248201527f596f75206861766520746f206c6f636b20796f757220746f6b656e7320666f726044820152712061746c656173742035206d696e7574657360701b606482015260840161032f565b6001600160a01b038416600090815260046020908152604080832033845290915290205483111561087b5760405162461bcd60e51b815260206004820152602e60248201527f496e73756666696369656e74205374616b656420416d6f756e742063616e6e6f60448201526d3a103132903bb4ba34323930bbb760911b606482015260840161032f565b6001546001600160a01b038516600090815260036020908152604080832033845290915281205490916108ad91610b77565b6108b79042610b77565b6001600160a01b03861660009081526004602090815260408083203384529091528120805492935086929091906108ef908490610b77565b909155505060005461090d90606490600160a01b900460ff16610ba6565b60ff1661091d62278d0083610bc8565b6109279086610bdc565b6109319190610bdc565b6001600160a01b038616600081815260056020908152604080832033808552925291829020939093555163a9059cbb60e01b81526004810192909252602482018690529063a9059cbb906044016020604051808303816000875af115801561099d573d6000803e3d6000fd5b505050506040513d601f19601f820116820180604052508101906109c19190610c95565b506001600160a01b0385811660009081526005602090815260408083203380855292529182902054915163a9059cbb60e01b8152600481019190915260248101919091527f00000000000000000000000000000000000000000000000000000000000000009091169063a9059cbb906044016020604051808303816000875af1158015610a52573d6000803e3d6000fd5b505050506040513d601f19601f82011682018060405250810190610a769190610c95565b50604080516001600160a01b03871681523360208201529081018590527f09c43c6af23fb5a3e61b922e049ea36d0b01c3ce0b605adea14c783a6fd421e59060600160405180910390a1506001949350505050565b80356001600160a01b03811681146104c257600080fd5b600060208284031215610af457600080fd5b610afd82610acb565b9392505050565b60008060408385031215610b1757600080fd5b610b2083610acb565b9150610b2e60208401610acb565b90509250929050565b60008060408385031215610b4a57600080fd5b610b5383610acb565b946020939093013593505050565b634e487b7160e01b600052601160045260246000fd5b81810381811115610b8a57610b8a610b61565b92915050565b634e487b7160e01b600052601260045260246000fd5b600060ff831680610bb957610bb9610b90565b8060ff84160491505092915050565b600082610bd757610bd7610b90565b500490565b8082028115828204841417610b8a57610b8a610b61565b600060ff821660ff8103610c0957610c09610b61565b60010192915050565b60ff8281168282160390811115610b8a57610b8a610b61565b60208082526031908201527f546f6b656e20446f6573206e6f7420457869737420666f72207374616b696e67604082015270081a5b881d1a1a5cc818dbdb9d1c9858dd607a1b606082015260800190565b600060208284031215610c8e57600080fd5b5051919050565b600060208284031215610ca757600080fd5b81518015158114610afd57600080fd5b80820180821115610b8a57610b8a610b6156fea2646970667358221220b950828427a58cae9d107a84b072b95c5323b5c91ef9248dbd6c0e9ee6a17e2c64736f6c63430008130033",
  "linkReferences": {},
  "deployedLinkReferences": {}
}